{
  "address": "0x8EB07F4A74f5E67Cbac753dfd80097A319201345",
  "abi": [
    {
      "inputs": [
        {
          "internalType": "address",
          "name": "vrfCoordinatorV2",
          "type": "address"
        },
        {
          "internalType": "uint256",
          "name": "entranceFee",
          "type": "uint256"
        },
        {
          "internalType": "bytes32",
          "name": "gasLane",
          "type": "bytes32"
        },
        {
          "internalType": "uint64",
          "name": "subscriptionId",
          "type": "uint64"
        },
        {
          "internalType": "uint32",
          "name": "callbackGasLimit",
          "type": "uint32"
        },
        {
          "internalType": "uint256",
          "name": "interval",
          "type": "uint256"
        }
      ],
      "stateMutability": "nonpayable",
      "type": "constructor"
    },
    {
      "inputs": [],
      "name": "Lottery__CallToTransferToWinnerFail",
      "type": "error"
    },
    {
      "inputs": [],
      "name": "Lottery__NotEnoughEthEntered",
      "type": "error"
    },
    {
      "inputs": [],
      "name": "Lottery__NotOpen",
      "type": "error"
    },
    {
      "inputs": [
        {
          "internalType": "uint256",
          "name": "contractBalance",
          "type": "uint256"
        },
        {
          "internalType": "uint256",
          "name": "numberOfPlayers",
          "type": "uint256"
        },
        {
          "internalType": "uint256",
          "name": "currentState",
          "type": "uint256"
        }
      ],
      "name": "Lottery__UpkeepNotNeeded",
      "type": "error"
    },
    {
      "inputs": [
        {
          "internalType": "address",
          "name": "have",
          "type": "address"
        },
        {
          "internalType": "address",
          "name": "want",
          "type": "address"
        }
      ],
      "name": "OnlyCoordinatorCanFulfill",
      "type": "error"
    },
    {
      "anonymous": false,
      "inputs": [
        {
          "indexed": true,
          "internalType": "uint256",
          "name": "requestId",
          "type": "uint256"
        },
        {
          "indexed": true,
          "internalType": "address",
          "name": "winner",
          "type": "address"
        },
        {
          "indexed": true,
          "internalType": "uint256",
          "name": "amountWin",
          "type": "uint256"
        }
      ],
      "name": "FullfilLotteryWinner",
      "type": "event"
    },
    {
      "anonymous": false,
      "inputs": [
        {
          "indexed": true,
          "internalType": "address",
          "name": "player",
          "type": "address"
        }
      ],
      "name": "LotteryEnter",
      "type": "event"
    },
    {
      "anonymous": false,
      "inputs": [
        {
          "indexed": true,
          "internalType": "address",
          "name": "from",
          "type": "address"
        },
        {
          "indexed": true,
          "internalType": "address",
          "name": "to",
          "type": "address"
        }
      ],
      "name": "OwnershipTransferRequested",
      "type": "event"
    },
    {
      "anonymous": false,
      "inputs": [
        {
          "indexed": true,
          "internalType": "address",
          "name": "from",
          "type": "address"
        },
        {
          "indexed": true,
          "internalType": "address",
          "name": "to",
          "type": "address"
        }
      ],
      "name": "OwnershipTransferred",
      "type": "event"
    },
    {
      "anonymous": false,
      "inputs": [
        {
          "indexed": true,
          "internalType": "uint256",
          "name": "requestId",
          "type": "uint256"
        }
      ],
      "name": "RequestedLotteryWinner",
      "type": "event"
    },
    {
      "inputs": [],
      "name": "acceptOwnership",
      "outputs": [],
      "stateMutability": "nonpayable",
      "type": "function"
    },
    {
      "inputs": [
        {
          "internalType": "bytes",
          "name": "",
          "type": "bytes"
        }
      ],
      "name": "checkUpkeep",
      "outputs": [
        {
          "internalType": "bool",
          "name": "upkeepNeeded",
          "type": "bool"
        },
        {
          "internalType": "bytes",
          "name": "",
          "type": "bytes"
        }
      ],
      "stateMutability": "nonpayable",
      "type": "function"
    },
    {
      "inputs": [],
      "name": "enterLottery",
      "outputs": [],
      "stateMutability": "payable",
      "type": "function"
    },
    {
      "inputs": [],
      "name": "getEntranceFee",
      "outputs": [
        {
          "internalType": "uint256",
          "name": "",
          "type": "uint256"
        }
      ],
      "stateMutability": "view",
      "type": "function"
    },
    {
      "inputs": [],
      "name": "getInterval",
      "outputs": [
        {
          "internalType": "uint256",
          "name": "",
          "type": "uint256"
        }
      ],
      "stateMutability": "view",
      "type": "function"
    },
    {
      "inputs": [],
      "name": "getLatestTimeStamp",
      "outputs": [
        {
          "internalType": "uint256",
          "name": "",
          "type": "uint256"
        }
      ],
      "stateMutability": "view",
      "type": "function"
    },
    {
      "inputs": [],
      "name": "getLotteryState",
      "outputs": [
        {
          "internalType": "enum Lottery.LotteryState",
          "name": "",
          "type": "uint8"
        }
      ],
      "stateMutability": "view",
      "type": "function"
    },
    {
      "inputs": [],
      "name": "getNumWords",
      "outputs": [
        {
          "internalType": "uint256",
          "name": "",
          "type": "uint256"
        }
      ],
      "stateMutability": "pure",
      "type": "function"
    },
    {
      "inputs": [],
      "name": "getNumberOfPlayers",
      "outputs": [
        {
          "internalType": "uint256",
          "name": "",
          "type": "uint256"
        }
      ],
      "stateMutability": "view",
      "type": "function"
    },
    {
      "inputs": [
        {
          "internalType": "uint256",
          "name": "index",
          "type": "uint256"
        }
      ],
      "name": "getPlayer",
      "outputs": [
        {
          "internalType": "address",
          "name": "",
          "type": "address"
        }
      ],
      "stateMutability": "view",
      "type": "function"
    },
    {
      "inputs": [],
      "name": "getRecentWinner",
      "outputs": [
        {
          "internalType": "address",
          "name": "",
          "type": "address"
        }
      ],
      "stateMutability": "view",
      "type": "function"
    },
    {
      "inputs": [],
      "name": "getRequestConfirmations",
      "outputs": [
        {
          "internalType": "uint256",
          "name": "",
          "type": "uint256"
        }
      ],
      "stateMutability": "pure",
      "type": "function"
    },
    {
      "inputs": [],
      "name": "owner",
      "outputs": [
        {
          "internalType": "address",
          "name": "",
          "type": "address"
        }
      ],
      "stateMutability": "view",
      "type": "function"
    },
    {
      "inputs": [
        {
          "internalType": "bytes",
          "name": "",
          "type": "bytes"
        }
      ],
      "name": "performUpkeep",
      "outputs": [],
      "stateMutability": "nonpayable",
      "type": "function"
    },
    {
      "inputs": [
        {
          "internalType": "uint256",
          "name": "requestId",
          "type": "uint256"
        },
        {
          "internalType": "uint256[]",
          "name": "randomWords",
          "type": "uint256[]"
        }
      ],
      "name": "rawFulfillRandomWords",
      "outputs": [],
      "stateMutability": "nonpayable",
      "type": "function"
    },
    {
      "inputs": [
        {
          "internalType": "address",
          "name": "to",
          "type": "address"
        }
      ],
      "name": "transferOwnership",
      "outputs": [],
      "stateMutability": "nonpayable",
      "type": "function"
    }
  ],
  "transactionHash": "0xec784ba538165ffda44fcf300c0c58500a353c3ac2f06a36fd3704c3f17d3ce8",
  "args": [
    "0x2Ca8E0C643bDe4C2E08ab1fA0da3401AdAD7734D",
    "10000000000000000",
    "0x79d3d8832d904592c0bf9818b621522c988bb8b0c05cdc3b15aea1b6e8db0c15",
    "8243",
    "500000",
    "30"
  ],
  "numDeployments": 3,
  "solcInputHash": "56a5c3d452bdd8f0709d3a941ad8fd6d",
  "bytecode": "0x6101606040523480156200001257600080fd5b506040516200210a3803806200210a8339818101604052810190620000389190620004c3565b33806000888073ffffffffffffffffffffffffffffffffffffffff1660808173ffffffffffffffffffffffffffffffffffffffff168152505050600073ffffffffffffffffffffffffffffffffffffffff168273ffffffffffffffffffffffffffffffffffffffff1603620000e4576040517f08c379a0000000000000000000000000000000000000000000000000000000008152600401620000db90620005c0565b60405180910390fd5b816000806101000a81548173ffffffffffffffffffffffffffffffffffffffff021916908373ffffffffffffffffffffffffffffffffffffffff160217905550600073ffffffffffffffffffffffffffffffffffffffff168173ffffffffffffffffffffffffffffffffffffffff16146200016b576200016a816200022e60201b60201c565b5b5050508460a081815250508573ffffffffffffffffffffffffffffffffffffffff1660c08173ffffffffffffffffffffffffffffffffffffffff16815250508360e081815250508267ffffffffffffffff166101008167ffffffffffffffff16815250508163ffffffff166101208163ffffffff16815250506000600360146101000a81548160ff021916908360018111156200020d576200020c620005e2565b5b02179055504260048190555080610140818152505050505050505062000683565b3373ffffffffffffffffffffffffffffffffffffffff168173ffffffffffffffffffffffffffffffffffffffff16036200029f576040517f08c379a0000000000000000000000000000000000000000000000000000000008152600401620002969062000661565b60405180910390fd5b80600160006101000a81548173ffffffffffffffffffffffffffffffffffffffff021916908373ffffffffffffffffffffffffffffffffffffffff1602179055508073ffffffffffffffffffffffffffffffffffffffff1660008054906101000a900473ffffffffffffffffffffffffffffffffffffffff1673ffffffffffffffffffffffffffffffffffffffff167fed8889f560326eb138920d842192f0eb3dd22b4f139c87a2c57538e05bae127860405160405180910390a350565b600080fd5b600073ffffffffffffffffffffffffffffffffffffffff82169050919050565b60006200038f8262000362565b9050919050565b620003a18162000382565b8114620003ad57600080fd5b50565b600081519050620003c18162000396565b92915050565b6000819050919050565b620003dc81620003c7565b8114620003e857600080fd5b50565b600081519050620003fc81620003d1565b92915050565b6000819050919050565b620004178162000402565b81146200042357600080fd5b50565b60008151905062000437816200040c565b92915050565b600067ffffffffffffffff82169050919050565b6200045c816200043d565b81146200046857600080fd5b50565b6000815190506200047c8162000451565b92915050565b600063ffffffff82169050919050565b6200049d8162000482565b8114620004a957600080fd5b50565b600081519050620004bd8162000492565b92915050565b60008060008060008060c08789031215620004e357620004e26200035d565b5b6000620004f389828a01620003b0565b96505060206200050689828a01620003eb565b95505060406200051989828a0162000426565b94505060606200052c89828a016200046b565b93505060806200053f89828a01620004ac565b92505060a06200055289828a01620003eb565b9150509295509295509295565b600082825260208201905092915050565b7f43616e6e6f7420736574206f776e657220746f207a65726f0000000000000000600082015250565b6000620005a86018836200055f565b9150620005b58262000570565b602082019050919050565b60006020820190508181036000830152620005db8162000599565b9050919050565b7f4e487b7100000000000000000000000000000000000000000000000000000000600052602160045260246000fd5b7f43616e6e6f74207472616e7366657220746f2073656c66000000000000000000600082015250565b6000620006496017836200055f565b9150620006568262000611565b602082019050919050565b600060208201905081810360008301526200067c816200063a565b9050919050565b60805160a05160c05160e051610100516101205161014051611a17620006f3600039600081816107140152610940015260006105bc01526000610599015260006105780152600061053c01526000818161039601526109660152600081816103bc01526104100152611a176000f3fe6080604052600436106100f35760003560e01c80636e04ff0d1161008a578063c1af578511610059578063c1af5785146102f7578063e55ae4e814610301578063f2fde38b1461033e578063fd6673f514610367576100f3565b80636e04ff0d1461024c57806379ba50971461028a5780638da5cb5b146102a157806391ad27b4146102cc576100f3565b8063473f1ddc116100c6578063473f1ddc146101a057806353a2c19a146101cb5780635f1b0fd8146101f65780636b68c03c14610221576100f3565b806309bc33a7146100f85780631fe543e314610123578063320229eb1461014c5780634585e33b14610177575b600080fd5b34801561010457600080fd5b5061010d610392565b60405161011a9190610ff3565b60405180910390f35b34801561012f57600080fd5b5061014a600480360381019061014591906111a7565b6103ba565b005b34801561015857600080fd5b5061016161047a565b60405161016e9190610ff3565b60405180910390f35b34801561018357600080fd5b5061019e6004803603810190610199919061125e565b610484565b005b3480156101ac57600080fd5b506101b5610675565b6040516101c291906112ec565b60405180910390f35b3480156101d757600080fd5b506101e061069f565b6040516101ed9190610ff3565b60405180910390f35b34801561020257600080fd5b5061020b6106ae565b6040516102189190610ff3565b60405180910390f35b34801561022d57600080fd5b506102366106bb565b604051610243919061137e565b60405180910390f35b34801561025857600080fd5b50610273600480360381019061026e919061144e565b6106d2565b604051610281929190611531565b60405180910390f35b34801561029657600080fd5b5061029f61077e565b005b3480156102ad57600080fd5b506102b6610913565b6040516102c391906112ec565b60405180910390f35b3480156102d857600080fd5b506102e161093c565b6040516102ee9190610ff3565b60405180910390f35b6102ff610964565b005b34801561030d57600080fd5b5061032860048036038101906103239190611561565b610ad3565b60405161033591906112ec565b60405180910390f35b34801561034a57600080fd5b50610365600480360381019061036091906115ba565b610b1b565b005b34801561037357600080fd5b5061037c610b2f565b6040516103899190610ff3565b60405180910390f35b60007f0000000000000000000000000000000000000000000000000000000000000000905090565b7f000000000000000000000000000000000000000000000000000000000000000073ffffffffffffffffffffffffffffffffffffffff163373ffffffffffffffffffffffffffffffffffffffff161461046c57337f00000000000000000000000000000000000000000000000000000000000000006040517f1cf993f40000000000000000000000000000000000000000000000000000000081526004016104639291906115e7565b60405180910390fd5b6104768282610b3c565b5050565b6000600454905090565b600061049e604051806020016040528060008152506106d2565b5090508061050d5747600280549050600360149054906101000a900460ff1660018111156104cf576104ce611307565b5b6040517f6e195f2500000000000000000000000000000000000000000000000000000000815260040161050493929190611610565b60405180910390fd5b6001600360146101000a81548160ff0219169083600181111561053357610532611307565b5b021790555060007f000000000000000000000000000000000000000000000000000000000000000073ffffffffffffffffffffffffffffffffffffffff16635d3b1d307f00000000000000000000000000000000000000000000000000000000000000007f000000000000000000000000000000000000000000000000000000000000000060037f000000000000000000000000000000000000000000000000000000000000000060016040518663ffffffff1660e01b81526004016105fd9594939291906116bf565b6020604051808303816000875af115801561061c573d6000803e3d6000fd5b505050506040513d601f19601f820116820180604052508101906106409190611727565b9050807febf56642252004c18a776f30d528e7a0ce8c5db14b6596fb6550f630c8a24c6c60405160405180910390a250505050565b6000600360009054906101000a900473ffffffffffffffffffffffffffffffffffffffff16905090565b6000600163ffffffff16905090565b6000600361ffff16905090565b6000600360149054906101000a900460ff16905090565b6000606060008060018111156106eb576106ea611307565b5b600360149054906101000a900460ff16600181111561070d5761070c611307565b5b14905060007f0000000000000000000000000000000000000000000000000000000000000000600454426107419190611783565b119050600080600280549050119050600080471190508380156107615750825b801561076a5750815b80156107735750805b955050505050915091565b600160009054906101000a900473ffffffffffffffffffffffffffffffffffffffff1673ffffffffffffffffffffffffffffffffffffffff163373ffffffffffffffffffffffffffffffffffffffff161461080e576040517f08c379a000000000000000000000000000000000000000000000000000000000815260040161080590611814565b60405180910390fd5b60008060009054906101000a900473ffffffffffffffffffffffffffffffffffffffff169050336000806101000a81548173ffffffffffffffffffffffffffffffffffffffff021916908373ffffffffffffffffffffffffffffffffffffffff1602179055506000600160006101000a81548173ffffffffffffffffffffffffffffffffffffffff021916908373ffffffffffffffffffffffffffffffffffffffff1602179055503373ffffffffffffffffffffffffffffffffffffffff168173ffffffffffffffffffffffffffffffffffffffff167f8be0079c531659141344cd1fd0a4f28419497f9722a3daafe3b4186f6b6457e060405160405180910390a350565b60008060009054906101000a900473ffffffffffffffffffffffffffffffffffffffff16905090565b60007f0000000000000000000000000000000000000000000000000000000000000000905090565b7f00000000000000000000000000000000000000000000000000000000000000003410156109be576040517f3e8f808800000000000000000000000000000000000000000000000000000000815260040160405180910390fd5b600060018111156109d2576109d1611307565b5b600360149054906101000a900460ff1660018111156109f4576109f3611307565b5b14610a2b576040517fe76be6fc00000000000000000000000000000000000000000000000000000000815260040160405180910390fd5b6002339080600181540180825580915050600190039060005260206000200160009091909190916101000a81548173ffffffffffffffffffffffffffffffffffffffff021916908373ffffffffffffffffffffffffffffffffffffffff1602179055503373ffffffffffffffffffffffffffffffffffffffff167f1d64fb5ba9f2548c5b98468d58f25b87b9e866afee0122e92d9fe722bf85076c60405160405180910390a2565b600060028281548110610ae957610ae8611834565b5b9060005260206000200160009054906101000a900473ffffffffffffffffffffffffffffffffffffffff169050919050565b610b23610d77565b610b2c81610e07565b50565b6000600280549050905090565b600060028054905082600081518110610b5857610b57611834565b5b6020026020010151610b6a9190611892565b9050600060028281548110610b8257610b81611834565b5b9060005260206000200160009054906101000a900473ffffffffffffffffffffffffffffffffffffffff16905080600360006101000a81548173ffffffffffffffffffffffffffffffffffffffff021916908373ffffffffffffffffffffffffffffffffffffffff160217905550600067ffffffffffffffff811115610c0b57610c0a611064565b5b604051908082528060200260200182016040528015610c395781602001602082028036833780820191505090505b5060029080519060200190610c4f929190610f33565b506000600360146101000a81548160ff02191690836001811115610c7657610c75611307565b5b021790555042600481905550600047905060008273ffffffffffffffffffffffffffffffffffffffff1682604051610cad906118f4565b60006040518083038185875af1925050503d8060008114610cea576040519150601f19603f3d011682016040523d82523d6000602084013e610cef565b606091505b5050905080610d2a576040517fbc687c1600000000000000000000000000000000000000000000000000000000815260040160405180910390fd5b818373ffffffffffffffffffffffffffffffffffffffff16877f6b52d6ea8d7d904d7dc274a13d4132348cee2ecde82d49d843fe3564159154fb60405160405180910390a4505050505050565b60008054906101000a900473ffffffffffffffffffffffffffffffffffffffff1673ffffffffffffffffffffffffffffffffffffffff163373ffffffffffffffffffffffffffffffffffffffff1614610e05576040517f08c379a0000000000000000000000000000000000000000000000000000000008152600401610dfc90611955565b60405180910390fd5b565b3373ffffffffffffffffffffffffffffffffffffffff168173ffffffffffffffffffffffffffffffffffffffff1603610e75576040517f08c379a0000000000000000000000000000000000000000000000000000000008152600401610e6c906119c1565b60405180910390fd5b80600160006101000a81548173ffffffffffffffffffffffffffffffffffffffff021916908373ffffffffffffffffffffffffffffffffffffffff1602179055508073ffffffffffffffffffffffffffffffffffffffff1660008054906101000a900473ffffffffffffffffffffffffffffffffffffffff1673ffffffffffffffffffffffffffffffffffffffff167fed8889f560326eb138920d842192f0eb3dd22b4f139c87a2c57538e05bae127860405160405180910390a350565b828054828255906000526020600020908101928215610fac579160200282015b82811115610fab5782518260006101000a81548173ffffffffffffffffffffffffffffffffffffffff021916908373ffffffffffffffffffffffffffffffffffffffff16021790555091602001919060010190610f53565b5b509050610fb99190610fbd565b5090565b5b80821115610fd6576000816000905550600101610fbe565b5090565b6000819050919050565b610fed81610fda565b82525050565b60006020820190506110086000830184610fe4565b92915050565b6000604051905090565b600080fd5b600080fd5b61102b81610fda565b811461103657600080fd5b50565b60008135905061104881611022565b92915050565b600080fd5b6000601f19601f8301169050919050565b7f4e487b7100000000000000000000000000000000000000000000000000000000600052604160045260246000fd5b61109c82611053565b810181811067ffffffffffffffff821117156110bb576110ba611064565b5b80604052505050565b60006110ce61100e565b90506110da8282611093565b919050565b600067ffffffffffffffff8211156110fa576110f9611064565b5b602082029050602081019050919050565b600080fd5b600061112361111e846110df565b6110c4565b905080838252602082019050602084028301858111156111465761114561110b565b5b835b8181101561116f578061115b8882611039565b845260208401935050602081019050611148565b5050509392505050565b600082601f83011261118e5761118d61104e565b5b813561119e848260208601611110565b91505092915050565b600080604083850312156111be576111bd611018565b5b60006111cc85828601611039565b925050602083013567ffffffffffffffff8111156111ed576111ec61101d565b5b6111f985828601611179565b9150509250929050565b600080fd5b60008083601f84011261121e5761121d61104e565b5b8235905067ffffffffffffffff81111561123b5761123a611203565b5b6020830191508360018202830111156112575761125661110b565b5b9250929050565b6000806020838503121561127557611274611018565b5b600083013567ffffffffffffffff8111156112935761129261101d565b5b61129f85828601611208565b92509250509250929050565b600073ffffffffffffffffffffffffffffffffffffffff82169050919050565b60006112d6826112ab565b9050919050565b6112e6816112cb565b82525050565b600060208201905061130160008301846112dd565b92915050565b7f4e487b7100000000000000000000000000000000000000000000000000000000600052602160045260246000fd5b6002811061134757611346611307565b5b50565b600081905061135882611336565b919050565b60006113688261134a565b9050919050565b6113788161135d565b82525050565b6000602082019050611393600083018461136f565b92915050565b600080fd5b600067ffffffffffffffff8211156113b9576113b8611064565b5b6113c282611053565b9050602081019050919050565b82818337600083830152505050565b60006113f16113ec8461139e565b6110c4565b90508281526020810184848401111561140d5761140c611399565b5b6114188482856113cf565b509392505050565b600082601f8301126114355761143461104e565b5b81356114458482602086016113de565b91505092915050565b60006020828403121561146457611463611018565b5b600082013567ffffffffffffffff8111156114825761148161101d565b5b61148e84828501611420565b91505092915050565b60008115159050919050565b6114ac81611497565b82525050565b600081519050919050565b600082825260208201905092915050565b60005b838110156114ec5780820151818401526020810190506114d1565b60008484015250505050565b6000611503826114b2565b61150d81856114bd565b935061151d8185602086016114ce565b61152681611053565b840191505092915050565b600060408201905061154660008301856114a3565b818103602083015261155881846114f8565b90509392505050565b60006020828403121561157757611576611018565b5b600061158584828501611039565b91505092915050565b611597816112cb565b81146115a257600080fd5b50565b6000813590506115b48161158e565b92915050565b6000602082840312156115d0576115cf611018565b5b60006115de848285016115a5565b91505092915050565b60006040820190506115fc60008301856112dd565b61160960208301846112dd565b9392505050565b60006060820190506116256000830186610fe4565b6116326020830185610fe4565b61163f6040830184610fe4565b949350505050565b6000819050919050565b61165a81611647565b82525050565b600067ffffffffffffffff82169050919050565b61167d81611660565b82525050565b600061ffff82169050919050565b61169a81611683565b82525050565b600063ffffffff82169050919050565b6116b9816116a0565b82525050565b600060a0820190506116d46000830188611651565b6116e16020830187611674565b6116ee6040830186611691565b6116fb60608301856116b0565b61170860808301846116b0565b9695505050505050565b60008151905061172181611022565b92915050565b60006020828403121561173d5761173c611018565b5b600061174b84828501611712565b91505092915050565b7f4e487b7100000000000000000000000000000000000000000000000000000000600052601160045260246000fd5b600061178e82610fda565b915061179983610fda565b92508282039050818111156117b1576117b0611754565b5b92915050565b600082825260208201905092915050565b7f4d7573742062652070726f706f736564206f776e657200000000000000000000600082015250565b60006117fe6016836117b7565b9150611809826117c8565b602082019050919050565b6000602082019050818103600083015261182d816117f1565b9050919050565b7f4e487b7100000000000000000000000000000000000000000000000000000000600052603260045260246000fd5b7f4e487b7100000000000000000000000000000000000000000000000000000000600052601260045260246000fd5b600061189d82610fda565b91506118a883610fda565b9250826118b8576118b7611863565b5b828206905092915050565b600081905092915050565b50565b60006118de6000836118c3565b91506118e9826118ce565b600082019050919050565b60006118ff826118d1565b9150819050919050565b7f4f6e6c792063616c6c61626c65206279206f776e657200000000000000000000600082015250565b600061193f6016836117b7565b915061194a82611909565b602082019050919050565b6000602082019050818103600083015261196e81611932565b9050919050565b7f43616e6e6f74207472616e7366657220746f2073656c66000000000000000000600082015250565b60006119ab6017836117b7565b91506119b682611975565b602082019050919050565b600060208201905081810360008301526119da8161199e565b905091905056fea264697066735822122008e60569756eb4fcde04d0a2522504e126f9396bbf4c360bf3e34725c4ff228464736f6c63430008110033",
  "devdoc": {
    "author": "George Francis",
    "details": "This contract implements Chainlink VRF v2 and chainlink Keepers and demonstrate the utilities behind them",
    "kind": "dev",
    "methods": {
      "checkUpkeep(bytes)": {
        "details": "This is the function that the chainlink Keeper nodes call they look for `upkeepNeeded` to return true: The following should be true in order to return true This can be called with data or a funtion as parameter(bytes calldata):We are not using the calldata for our purpose now To know that it's time to pick a random winner (automatically calling the requestRandomWinner()):  0. Check that the Lottery is open: should be in an \"open\" state.(we want avoid people to enter Lottery when looking for a winner)  1. Our time interval should have passed  2. The lottery should have at least 1 player, and have some ETH  3. Our subscription (Keepers subscription) is funded with LINK (similar as we did with the VRF subscription)"
      }
    },
    "title": "A sample Lottery Contract",
    "version": 1
  },
  "userdoc": {
    "errors": {
      "Lottery__NotEnoughEthEntered()": [
        {
          "notice": "In this Lottery Contract we want to: 1- Enter the Lottery (paying some amount) 2- Pick a random winner (verifiably random) [chainlink VRF -> Randomness] 3- Winner has to be selected every X minutes -> completely automated [chainlink Keepers -> Automated Execution]"
        }
      ]
    },
    "kind": "user",
    "methods": {
      "acceptOwnership()": {
        "notice": "Allows an ownership transfer to be completed by the recipient."
      },
      "owner()": {
        "notice": "Get the current owner"
      },
      "transferOwnership(address)": {
        "notice": "Allows an owner to begin transferring ownership to a new address, pending."
      }
    },
    "notice": "This contract create an untemprable decentralized smart contract for simple Lottery Game",
    "version": 1
  },
  "storageLayout": {
    "storage": [
      {
        "astId": 27,
        "contract": "contracts/Lottery.sol:Lottery",
        "label": "s_owner",
        "offset": 0,
        "slot": "0",
        "type": "t_address"
      },
      {
        "astId": 29,
        "contract": "contracts/Lottery.sol:Lottery",
        "label": "s_pendingOwner",
        "offset": 0,
        "slot": "1",
        "type": "t_address"
      },
      {
        "astId": 1368,
        "contract": "contracts/Lottery.sol:Lottery",
        "label": "s_players",
        "offset": 0,
        "slot": "2",
        "type": "t_array(t_address_payable)dyn_storage"
      },
      {
        "astId": 1385,
        "contract": "contracts/Lottery.sol:Lottery",
        "label": "s_recentWinner",
        "offset": 0,
        "slot": "3",
        "type": "t_address"
      },
      {
        "astId": 1388,
        "contract": "contracts/Lottery.sol:Lottery",
        "label": "s_lotteryState",
        "offset": 20,
        "slot": "3",
        "type": "t_enum(LotteryState)1363"
      },
      {
        "astId": 1390,
        "contract": "contracts/Lottery.sol:Lottery",
        "label": "s_lastTimeStamp",
        "offset": 0,
        "slot": "4",
        "type": "t_uint256"
      }
    ],
    "types": {
      "t_address": {
        "encoding": "inplace",
        "label": "address",
        "numberOfBytes": "20"
      },
      "t_address_payable": {
        "encoding": "inplace",
        "label": "address payable",
        "numberOfBytes": "20"
      },
      "t_array(t_address_payable)dyn_storage": {
        "base": "t_address_payable",
        "encoding": "dynamic_array",
        "label": "address payable[]",
        "numberOfBytes": "32"
      },
      "t_enum(LotteryState)1363": {
        "encoding": "inplace",
        "label": "enum Lottery.LotteryState",
        "numberOfBytes": "1"
      },
      "t_uint256": {
        "encoding": "inplace",
        "label": "uint256",
        "numberOfBytes": "32"
      }
    }
  }
}